:020000040800F2
:10000000600600200D020008150200081702000813
:10001000190200081B0200081D0200080000000071
:100020000000000000000000000000001F020008A7
:100030002102000800000000230200082502000839
:1000400027020008270200082702000827020008EC
:1000500027020008270200082702000827020008DC
:1000600027020008270200082702000827020008CC
:1000700027020008270200082702000827020008BC
:1000800027020008270200082702000827020008AC
:10009000270200082702000827020008270200089C
:1000A000270200082702000827020008270200088C
:1000B000270200082702000827020008270200087C
:1000C000270200082702000827020008270200086C
:1000D000270200082702000827020008270200085C
:1000E000270200082702000827020008270200084C
:1000F000270200082702000827020008270200083C
:10010000270200082702000827020008270200082B
:10011000270200082702000827020008270200081B
:10012000270200082702000827020008270200080B
:1001300027020008270200082702000827020008FB
:1001400027020008270200082702000827020008EB
:1001500027020008270200082702000827020008DB
:1001600027020008270200082702000827020008CB
:1001700027020008270200082702000800000000EC
:10018000270200082702000800F002F800F02EF80D
:100190000AA090E8000C82448344AAF10107DA45E2
:1001A00001D100F023F8AFF2090EBAE80F0013F006
:1001B000010F18BFFB1A43F0010318474403000066
:1001C000540300000023002400250026103A28BF15
:1001D00078C1FBD8520728BF30C148BF0B607047B9
:1001E0001FB500F087F91FBD10B510BD00F031F844
:1001F0001146FFF7F5FF00F04FF900F04FF803B498
:10020000FFF7F2FF03BC00F057F8000009488047F1
:1002100009480047FEE7FEE7FEE7FEE7FEE7FEE7E8
:10022000FEE7FEE7FEE7FEE704480549054A064B00
:10023000704700003D0400088901000860000020AC
:1002400060060020600200206002002070477047B6
:100250007047754600F02CF8AE46050069465346D7
:1002600020F00700854618B020B5FFF7DDFFBDE898
:1002700020404FF000064FF000074FF000084FF00D
:10028000000B21F00701AC46ACE8C009ACE8C0099E
:10029000ACE8C009ACE8C0098D46704710B504460B
:1002A000AFF300802046BDE81040FFF7A8BF000074
:1002B000004870470000002001491820ABBEFEE74F
:1002C00026000200704702464FF09040006900F09F
:1002D00001000146704700002A49C96C41F0010144
:1002E000284AD16468B94FF09041096821F00101B2
:1002F0004FF0904211601146096821F0020111602F
:100300003EE003280DD14FF09041096821F004012F
:100310004FF0904211601146096821F00801116008
:100320002EE004280DD14FF09041096821F0100112
:100330004FF0904211601146096821F020011160D0
:100340001EE001280DD14FF09041096821F04001D5
:100350004FF0904211601146096821F08001116050
:100360000EE002280CD14FF09041096821F4806121
:100370004FF0904211601146096821F4006111604C
:10038000704700000010024030B90849096821F0A8
:100390000401064A116007E0012805D104494969B2
:1003A00021F48071024A5161704700001404004832
:1003B0000010004830B90849096841F00401064AB4
:1003C000116007E0012805D10449496941F48071B1
:1003D000024A5161704700001404004800100048B0
:1003E00088B91349C96C41F00201114AD16411491D
:1003F000096841F010010F4A11601146096821F0A7
:100400002001116012E0012810D10949C96C41F0A6
:100410001001074AD1640849096841F48031064A4D
:1004200011601146096821F4003111607047000025
:100430000010024000040048001000481048006806
:1004400040F470000E4908600E48006840F001005A
:100450000C49086000208860084600680A49084086
:10046000084908608814C8600846006820F48020A5
:10047000086000208861C80301498039086070471E
:1004800088ED00E000100240FFFFF6EA00BF011E09
:10049000A0F10100FBD170470020FFF7A1FF012070
:1004A000FFF79EFF0020FFF717FF00F001F80000A4
:1004B0001CE00020FFF707FF0446012C13D111E0D8
:1004C0000020FFF777FF0120FFF75EFF0848FFF7E6
:1004D000DDFF0020FFF758FF0120FFF76BFF044806
:1004E000FFF7D4FFECE70020FFF764FFE1E700002F
:1004F000400D03004FF04070E1EE100A704700001D
:10050000100500080000002060060000C40100087B
:040000050800020DE0
:00000001FF
